:020000040800F2
:10000000380C0020650A00089F040008EB04000873
:1000100000000000000000000000000000000000E0
:10002000000000000000000000000000B50A000809
:100030000000000000000000B50A0008A904000844
:10004000B50A0008B50A0008B50A0008B50A000894
:10005000B50A0008B50A0008B50A0008B50A000884
:1000600000000000C1040008B50A0008B50A000835
:10007000B7040008B50A0008B50A0008000000002F
:10008000B50A0008B50A000800000000B50A00081B
:10009000B50A0008B50A0008B50A0008B50A000844
:1000A000B50A0008B50A0008B50A0008B50A000834
:1000B000B50A000800000000000000000000000079
:0C00C000B50A000800000000B50A0008A6
:1000CC0040F2040040F20403C2F20000C2F200034A
:1000DC0010B5834205D040F20003C0F2000303B117
:1000EC00984710BD40F2040040F20403C2F2000035
:1000FC00C2F200031B1A9A10D90F8918491010B5B7
:10010C0029B140F20003C0F2000303B1984710BDBF
:10011C0010B540F20404C2F20004237873B9FFF75F
:10012C00CFFF40F20003C0F200032BB142F2780083
:10013C00C0F6000000E000BF0123237010BDC046D4
:10014C0040F20003C0F2000310B54BB140F20801BD
:10015C0042F27800C2F20001C0F6000000E000BFDD
:10016C00FFF7C0FF10BDC04670B542F28C1342F2CF
:10017C008C15C0F60003C0F600055E1BB610AB4232
:10018C0005D0002408CD01349847A642FAD801F0D6
:10019C006DFF42F28C1542F29013C0F60005C0F6CA
:1001AC0000035E1BB610AB4205D0002408CD013411
:1001BC009847A642FAD870BD90B585B000AF00F054
:1001CC003EF908243A1942F29003C0F6000303CB1F
:1001DC0003C23A0042F29803C0F60003196811609A
:1001EC001B791371002001F037FD012001F034FD63
:1001FC003B000521180001F0FAFD3B1908211800FD
:10020C0001F098FD40F22403C2F200031B78DBB22C
:10021C003BB140F22403C2F2000300221A7000F03A
:10022C0002F830BFEEE780B500AF052001F0FCFC12
:10023C0003001A0040F2D0739A4203D9002001F057
:10024C0064FE02E0002001F085FE062001F0ECFCCB
:10025C0003001A0040F2D0739A4203D9012001F036
:10026C0054FE02E0012001F075FE022001F0DCFCDE
:10027C0003001A0040F2D0739A4203D9022001F015
:10028C0044FE02E0022001F065FE012001F0CCFCEE
:10029C0003001A0040F2D0739A4203D9032001F0F4
:1002AC0034FE02E0032001F055FE032001F0BCFCFB
:1002BC0003001A0040F2D0739A4203D9042001F0D3
:1002CC0024FE02E0042001F045FEC046BD4680BD80
:1002DC0090B583B000AF02003960FB1D1A70FB1D96
:1002EC001B787F2B2FD84EF20013CEF20003FA1D91
:1002FC00127852B29208C0329200D358FA1D12787A
:10030C00110003220A40D200FF2191400A00D2437F
:10031C001A4010003B689B01FF221A40FB1D1B7802
:10032C00190003230B40DB009A4011004EF200131E
:10033C00CEF20003FA1D127852B292080143C03279
:10034C009200D15037E04EF60053CEF20003FA1D66
:10035C00127811000F220A40083A920806329200D5
:10036C009B1804331B68FA1D1278110003220A40F3
:10037C00D200FF2191400A00D2431A4010003B6882
:10038C009B01FF221A40FB1D1B78190003230B4015
:10039C00DB009A404EF60053CEF20003F91D0978AB
:1003AC000C000F21214008398908024306318900CD
:1003BC005B1804331A60C046BD4603B090BD80B5CF
:1003CC0082B000AF78607B685A1E80235B049A422F
:1003DC0001D3012319E04EF21003CEF200037A6828
:1003EC00013A5A6001235B4203211800FFF770FFAA
:1003FC004EF21003CEF2000300229A604EF210036C
:10040C00CEF2000307221A6000231800BD4602B08A
:10041C0080BD80B500AF40F22003C2F200031B6820
:10042C0053B140F22003C2F200031B685A1E40F283
:10043C002003C2F200031A60C046BD4680BD80B5E1
:10044C0000AF00F047FA40F20003C2F200031B6851
:10045C0040F2E832B3FBF2F31800FFF7B0FFC046EE
:10046C00BD4680BD80B582B000AF786040F22003FD
:10047C00C2F200037A681A60C04640F22003C2F24E
:10048C0000031B68002BF8D1C046C046BD4602B025
:10049C0080BD80B500AFC046BD4680BD80B500AF05
:1004AC00FFF7B7FFC046BD4680BD80B500AFC04664
:1004BC00BD4680BD80B500AF0221002000F0DFFFFB
:1004CC0003004BB10221002001F05AF840F2240342
:1004DC00C2F2000301221A70C046BD4680BD80B531
:1004EC0000AFC046FDE780B584B000AF7860002354
:1004FC00FB6002E0FB680133FB607A6813009B0031
:10050C009B185B001A00FB689A42F3D8C046C046A1
:10051C00BD4604B080BD000080B582B000AF41F292
:10052C000003C4F202031A6841F20003C4F202038E
:10053C0001210A431A60C04641F20003C4F20203CF
:10054C001B6802221340002BF6D041F20403C4F2C4
:10055C0002031B680C221340082B39D141F204030F
:10056C00C4F202031B683B603B68F02293433B6080
:10057C003B68802213433B6041F20403C4F2020344
:10058C003A681A6000237B6002E07B6801337B6071
:10059C007B687F2BF9D941F20403C4F202031B6878
:1005AC003B603B68F02293433B603B6890221343D3
:1005BC003B6041F20403C4F202033A681A60002360
:1005CC007B6002E07B6801337B607B687F2BF9D911
:1005DC0041F20403C4F202031A6841F20403C4F2A8
:1005EC00020303218A431A606420FFF77CFF41F267
:1005FC000003C4F20203196841F20003C4F20203BF
:10060C004FF6FF72CFF6F2620A401A6041F2040311
:10061C00C4F20203196841F20403C4F202030C226F
:10062C00C0F6FF020A401A6041F20403C4F202034E
:10063C00196841F20403C4F202034FF6FF72C7F2C9
:10064C00C2720A401A6041F22C03C4F202031A6807
:10065C0041F22C03C4F202030F218A431A6041F2C7
:10066C003003C4F202031A6841F23003C4F20203ED
:10067C001C490A401A6041F23003C4F202031A68A2
:10068C0041F23003C4F2020317490A401A6041F2E6
:10069C003003C4F202031A6841F23003C4F20203BD
:1006AC00520052081A6041F23403C4F202031A6871
:1006BC0041F23403C4F2020301218A431A6041F26D
:1006CC000803C4F2020300221A6000F00FF8802322
:1006DC001B050021180001F08DFAC046BD4602B082
:1006EC0080BDC046FCFEFFFFFFFFFEFF80B500AFE4
:1006FC0000F003F8C046BD4680BD80B586B000AFA3
:10070C0000237B6100233B6141F20003C4F202032E
:10071C001A6841F20003C4F2020301210A431A6071
:10072C007B6901337B6141F20003C4F202031B6855
:10073C00022213403B613B6923B97B6940F20052B2
:10074C009342EDD141F20003C4F202031B68022272
:10075C0013400BB9C046FDE742F20003C4F202039A
:10076C001B68072293431A0042F20003C4F20203EF
:10077C0002210A431A6041F20403C4F202031A680C
:10078C0041F20403C4F2020390210A431A6041F2BD
:10079C000402C4F2020241F20403C4F2020312681E
:1007AC001A6041F20402C4F2020241F20403C4F2E0
:1007BC00020312681A6041F20403C4F202031968BE
:1007CC0041F20403C4F202034FF6FF72CFF2C2727D
:1007DC000A401A6041F20403C4F20203196841F2A0
:1007EC000403C4F202030022C0F604020A431A6096
:1007FC0041F20003C4F202031A6841F20003C4F28E
:10080C000203802149040A431A60C04641F20003E6
:10081C00C4F202031A6880239B041340002BF5D00A
:10082C0041F20403C4F202031B68FB60FB68032261
:10083C009343FB60FB6802221343FB6041F2040309
:10084C00C4F20203FA681A60C04641F20403C4F20F
:10085C0002031B680C221340082BF6D10023BB604B
:10086C0002E0BB680133BB60BB687F2BF9D941F256
:10087C000403C4F202031B687B607B68F022934381
:10088C007B607B68802213437B6041F20403C4F2DB
:10089C0002037A681A600023BB6002E0BB68013374
:1008AC00BB60BB687F2BF9D941F20403C4F202038D
:1008BC001B687B607B68F02293437B607B687B606A
:1008CC0041F20403C4F202037A681A60C046BD46C2
:1008DC0006B080BD90B58DB000AF0023BB62002385
:1008EC00FB6200237B6200233B620023FB6100233D
:1008FC00BB6100237B613A1D42F2A003C0F60003EA
:10090C0013CB13C21B68136041F20403C4F202033D
:10091C001B689B0803221340BB62BB6A022B1DD0D1
:10092C00BB6A022B00D96EE0BB6A1BB1BB6A012B00
:10093C000AD068E040F20003C2F2000341F2002248
:10094C00C0F27A021A6068E040F20003C2F20003BF
:10095C0041F20022C0F27A021A605EE041F2040316
:10096C00C4F202031B689B0C0F221340FB6241F282
:10097C000403C4F202031B68DB0E012213407B62EA
:10098C007B6A012B03D1FB6A1133FB6208E0FB6A23
:10099C000F2B02D11023FB6202E0FB6A0233FB62D5
:1009AC0041F20403C4F202031B681B0C0122134026
:1009BC003B623B6ABBB141F22C03C4F202031B68DD
:1009CC000F2213400133FB6141F20023C0F27A0382
:1009DC00FA69B3FBF2F3FA6A5A4340F20003C2F22B
:1009EC0000031A6019E0F96A0A005201521A9301C5
:1009FC009B1ADB005B181B021A0040F20003C2F2C8
:100A0C0000031A6009E040F20003C2F2000341F255
:100A1C000022C0F27A021A60C04641F20403C4F20A
:100A2C0002031B681B090F221340BB613A1DBB69F3
:100A3C00D3181B787B6140F20003C2F200031A68E2
:100A4C007B69DA4040F20003C2F200031A60C04630
:100A5C00BD460DB090BD00000D488546002103E059
:100A6C000C4B5B58435004310B480C4B42189A42C8
:100A7C00F6D30B4A02E0002313600432094B9A426E
:100A8C00F9D3FFF749FDFFF76FFBFFF795FB7047B5
:100A9C00380C0020942100080000002004000020E5
:100AAC000400002038000020FEE780B500AF42F2C1
:100ABC000843C4F201031B68012213405BB942F2E4
:100ACC000843C4F201031A6842F20843C4F201035A
:100ADC0001210A431A60C046BD4680BD80B500AFF7
:100AEC0042F20843C4F201031A6842F20843C4F20A
:100AFC00010308210A431A60C04642F20843C4F2BB
:100B0C0001031B6808221340002BF6D142F2084364
:100B1C00C4F201031A6842F20843C4F2010304212F
:100B2C000A431A60C04642F20843C4F201031B6830
:100B3C0004221340002BF6D1C046C046BD4680BDF2
:100B4C0080B500AF42F20843C4F201031A6842F2C6
:100B5C000843C4F2010340F200110A431A60C04674
:100B6C00BD4680BD80B582B000AF78600A00FB1C2A
:100B7C001A70FB1C1B78ABB37B6840F2001213405D
:100B8C0063B142F20443C4F201031A6842F2044313
:100B9C00C4F2010340F200110A431A607B6840F270
:100BAC000042134063B142F20443C4F201031A68D9
:100BBC0042F20443C4F2010340F200410A431A60BA
:100BCC007B6802221340002B3ED042F20843C4F251
:100BDC0001031A6842F20843C4F2010302210A43DA
:100BEC001A6031E07B6840F2001213405BB142F2B4
:100BFC000443C4F201031A6842F20443C4F2010331
:100C0C0013490A401A607B6840F2004213405BB102
:100C1C0042F20443C4F201031A6842F20443C4F2E0
:100C2C0001030C490A401A607B68022213405BB135
:100C3C0042F20843C4F201031A6842F20843C4F2B8
:100C4C00010302218A431A60C046BD4602B080BD32
:100C5C00FFFEFFFFFFFBFFFF80B582B000AF7860A7
:100C6C007B686BB142F20843C4F201031A6842F28A
:100C7C000843C4F2010340F600010A431A600BE07A
:100C8C0042F20843C4F201031A6842F20843C4F268
:100C9C00010303490A401A60C046BD4602B080BD3C
:100CAC00FFF7FFFF80B582B000AF02003960FB1D7B
:100CBC001A70FB1D1B78012B02D0022B1ED03BE0BF
:100CCC0042F22C43C4F201031A6842F22C43C4F2E0
:100CDC0001031B490A401A6042F22C43C4F201037F
:100CEC0019683B68013B1A05F0231B041A4042F2B9
:100CFC002C43C4F201030A431A601DE042F238434C
:100D0C00C4F201031A6842F23843C4F201030D49DC
:100D1C000A401A6042F23843C4F2010319683B6876
:100D2C00013B1A05C0239B031A4042F23843C4F21C
:100D3C0001030A431A60C046C046BD4602B080BDDE
:100D4C00FFFF0FFFFFFFCFFF80B584B000AF3A600D
:100D5C00FB1D021C1A70BB1D0A1C1A70FB1D1B7894
:100D6C00052B24D842F23443C4F201031B68FB6008
:100D7C00FB1D1A7813009B009B181F229A4013002E
:100D8C00DA43FB681340FB60BB1D1978FB1D1A7816
:100D9C0013009B009B1899400B00FA681343FB60EF
:100DAC0042F23443C4F20103FA681A6054E0FB1DAA
:100DBC001B780B2B26D842F23043C4F201031B687C
:100DCC00FB60FB1D1A7813009B009B181E3B1F2217
:100DDC009A401300DA43FB681340FB60BB1D197883
:100DEC00FB1D1A7813009B009B181E3B99400B00AF
:100DFC00FA681343FB6042F23043C4F20103FA6811
:100E0C001A6029E0FB1D1B780F2B25D842F22C43CE
:100E1C00C4F201031B68FB60FB1D1A7813009B00D6
:100E2C009B183C3B1F229A401300DA43FB6813408B
:100E3C00FB60BB1D1978FB1D1A7813009B009B18D7
:100E4C003C3B99400B00FA681343FB6042F22C4385
:100E5C00C4F20103FA681A60BB1D1B78092B23D856
:100E6C0042F21043C4F201031B68BB60BB1D1A782D
:100E7C0013005B009B1807229A401300DA43BB68EF
:100E8C001340BB60BB1D1A7813005B009B183A68BB
:100E9C009A401300BA681343BB6042F21043C4F289
:100EAC000103BA681A6028E0BB1D1B78122B24D8EA
:100EBC0042F20C43C4F201031B68BB60BB1D1A78E1
:100ECC0013005B009B181E3B07229A401300DA4369
:100EDC00BB681340BB60BB1D1A7813005B009B18EA
:100EEC001E3B3A689A401300BA681343BB6042F247
:100EFC000C43C4F20103BA681A60C046BD4604B084
:100F0C0080BD000080B582B000AF0200FB1D1A70DE
:100F1C00BB1D0A1C1A70BB1D1B7823B3FB1D1B7851
:100F2C000122134063B142F20843C4F201031A6870
:100F3C0042F20843C4F20103802149030A431A60B8
:100F4C00FB1D1B78022213407BB342F20843C4F210
:100F5C0001031A6842F20843C4F2010348F200018B
:100F6C000A431A6021E0FB1D1B78012213405BB180
:100F7C0042F20843C4F201031A6842F20843C4F275
:100F8C0001030C490A401A60FB1D1B780222134016
:100F9C005BB142F20843C4F201031A6842F20843FF
:100FAC00C4F2010304490A401A60C046BD4602B0AF
:100FBC0080BDC046FFFFEFFFFF7FFFFF80B582B013
:100FCC0000AF02003960FB1D1A70FB1D1B78012B52
:100FDC0002D0022B19D031E042F20843C4F20103D3
:100FEC001A6842F20843C4F2010316490A401A6017
:100FFC0042F20843C4F20103196842F20843C4F2F6
:10100C0001033A680A431A6018E042F20843C4F23A
:10101C0001031A6842F20843C4F201030A490A4068
:10102C001A6042F20843C4F20103196842F2084301
:10103C00C4F201033A680A431A60C046C046BD4672
:10104C0002B080BDFFFFF1FFFF8FFFFF80B582B0C4
:10105C0000AF0200FB1D1A70FB1D1B780122134010
:10106C0063B142F20843C4F201031A6842F2084326
:10107C00C4F201038021C9030A431A60FB1D1B78CB
:10108C000222134063B142F20843C4F201031A680E
:10109C0042F20843C4F20103802189030A431A6017
:1010AC00C046BD4602B080BD80B582B000AF020024
:1010BC00FB1D1A70FB1D1A7813009B009B189B00DC
:1010CC0040F2080CC4F2020C63441968FB1D1A7838
:1010DC0013009B009B189B0040F2080CC4F2020CFE
:1010EC006344012291430A001A60FB1D1A78130015
:1010FC009B009B189B0040F2080CC4F2020C63444A
:10110C0000221A60FB1D1A7813009B009B189B0091
:10111C0040F20C0CC4F2020C634400221A60FB1D5A
:10112C001A7813009B009B189B0040F2100CC4F221
:10113C00020C634400221A60FB1D1A7813009B00FA
:10114C009B189B0040F2140CC4F2020C6344002266
:10115C001A600423C4F202031968FB1D1B789B0060
:10116C000F229A400423C4F202030A431A60C046B9
:10117C00BD4602B080BD000080B584B000AF020057
:10118C003960FB1D1A70FB1D1B78180000F052F91A
:10119C00FB1D1A7813009B009B189B0040F2100C4F
:1011AC00C4F2020C63441A003B681B681360FB1DFD
:1011BC001A7813009B009B189B0040F2140CC4F28D
:1011CC00020C63441A003B689B6813603B68196906
:1011DC00FB1D1A7813009B009B189B0040F20C0C13
:1011EC00C4F2020C63440A04120C1A60FB1D1A7838
:1011FC0013009B009B189B0040F2080CC4F2020CDD
:10120C0063441B68FB60FB68654A1340FB603B68EA
:10121C005A683B68DB681A433B685B691343FA689E
:10122C001343FB60FB1D1A7813009B009B189B005B
:10123C0040F2080CC4F2020C6344FA681A603B6872
:10124C001B7E012B1AD1FB1D1A7813009B009B18D7
:10125C009B0040F2080CC4F2020C63441968FB1D9D
:10126C001A7813009B009B189B0040F2080CC4F2E8
:10127C00020C634440220A431A601AE0FB1D1A78E0
:10128C0013009B009B189B0040F2080CC4F2020C4C
:10129C0063441968FB1D1A7813009B009B189B0074
:1012AC0040F2080CC4F2020C6344402291430A0041
:1012BC001A603B685B7E012B1AD1FB1D1A78130058
:1012CC009B009B189B0040F2080CC4F2020C634478
:1012DC001968FB1D1A7813009B009B189B0040F2A9
:1012EC00080CC4F2020C634480220A431A601AE010
:1012FC00FB1D1A7813009B009B189B0040F2080CF6
:10130C00C4F2020C63441968FB1D1A7813009B008D
:10131C009B189B0040F2080CC4F2020C6344802220
:10132C0091430A001A603B689B7EDBB9FB1D1A785F
:10133C0013009B009B189B0040F2080CC4F2020C9B
:10134C0063441968FB1D1A7813009B009B189B00C3
:10135C0040F2080CC4F2020C6344102291430A00C0
:10136C001A6019E0FB1D1A7813009B009B189B0058
:10137C0040F2080CC4F2020C63441968FB1D1A7885
:10138C0013009B009B189B0040F2080CC4F2020C4B
:10139C00634410220A431A60C046BD4604B080BDA7
:1013AC00FFC0FFFF80B582B000AF0200FB1D1A70BA
:1013BC00FB1D1A7813009B009B189B0040F2080C35
:1013CC00C4F2020C63441968FB1D1A7813009B00CD
:1013DC009B189B0040F2080CC4F2020C63442022C0
:1013EC000A431A60C046BD4602B080BD80B582B0CB
:1013FC0000AF0200FB1D1A70FB1D1A7813009B0036
:10140C009B189B0040F2080CC4F2020C6344196850
:10141C00FB1D1A7813009B009B189B0040F2080CD4
:10142C00C4F2020C634401220A431A60C046BD4652
:10143C0002B080BD80B582B000AF0200FB1D1A70F7
:10144C00FB1D1A7813009B009B189B0040F2080CA4
:10145C00C4F2020C63441968FB1D1A7813009B003C
:10146C009B189B0040F2080CC4F2020C634401224E
:10147C0091430A001A60C046BD4602B080BD80B5DB
:10148C0086B000AF02003960FB1D1A7000237B612F
:10149C0000233B613B68082B41D03B68082B5AD892
:1014AC003B68022B03D03B68042B1CD053E0002379
:1014BC00C4F202031B68FA1D12789200396891403D
:1014CC000A0013403B61FB1D1A7813009B009B180C
:1014DC009B0040F2080CC4F2020C63441B6802220D
:1014EC0013407B6138E00023C4F202031B68FA1D31
:1014FC0012789200396891400A0013403B61FB1D41
:10150C001A7813009B009B189B0040F2080CC4F245
:10151C00020C63441B68042213407B611CE0002313
:10152C00C4F202031B68FA1D1278920039689140CC
:10153C000A0013403B61FB1D1A7813009B009B189B
:10154C009B0040F2080CC4F2020C63441B68082296
:10155C0013407B6100E0C0463B6933B17B6923B12A
:10156C000F23FB1801221A7003E00F23FB18002233
:10157C001A700F23FB181B781800BD4606B080BDEF
:10158C0080B582B000AF02003960FB1D1A700423D5
:10159C00C4F202031968FB1D1B789B003A689A4041
:1015AC000423C4F202030A431A60C046BD4602B0CB
:1015BC0080BD80B582B000AF02003960FB1D1A708F
:1015CC00FB1D1A7813009B009B189B0040F2080C23
:1015DC00C4F2020C63441968FB1D1A7813009B00BB
:1015EC009B189B0040F2080CC4F2020C63443A684E
:1015FC000A431A60C046BD4602B080BD80B588B0B3
:10160C0000AFF860B9607A603B60FB681B68BB6137
:10161C00FB680C331B687B611E23FB1800221A80AD
:10162C0034E01E217B181B8801229A4013003A6873
:10163C0013402BB37B181B885B0003229A401300CA
:10164C00DA43BB691340BB617B181B885B00BA682B
:10165C009A401300BA691343BB617B181B885B006B
:10166C0003229A401300DA437B6913407B617B1899
:10167C001B885B007A689A4013007A6913437B617C
:10168C001E217B181A887B1801321A801E23FB1826
:10169C001B880F2BC5D9FB68BA691A60FB680C3321
:1016AC007A691A60C046BD4608B080BD80B586B068
:1016BC0000AFF8607A603B600B203B180A1C1A7074
:1016CC003B181B78012B08D1FB6804331968FB68A5
:1016DC0004333A680A431A6008E0FB6804331A685A
:1016EC003B68D943FB6804330A401A60FB68083333
:1016FC001B683B611623FB1800221A8021E016217F
:10170C007B181B8801229A4013003A68134093B14E
:10171C007B181B885B0003229A401300DA433B6959
:10172C0013403B617B181B885B007A689A4013005E
:10173C003A6913433B6116217B181A887B180132D6
:10174C001A801623FB181B880F2BD8D9FB6808337B
:10175C003A691A60C046BD4606B080BD80B582B0FD
:10176C0000AF0200BB1D1A80BB1D1B889B099BB2DE
:10177C0041F2000CC4F2020C63441968BB1D1B88B7
:10178C001F22134001229A40BB1D1B889B099BB250
:10179C0041F2000CC4F2020C63440A431A60C046C6
:1017AC00BD4602B080BD000080B582B000AF020023
:1017BC00FB1D1A7041F20403C4F202031A6841F2D1
:1017CC000403C4F20203AD490A401A6041F230032B
:1017DC00C4F20203196841F23003C4F202034FF65B
:1017EC00FF62C7F6FE720A401A60FB1D1B78092BBC
:1017FC0000D93DE19A00A24BD3181B689F4641F2D9
:10180C003003C4F202031A6841F23003C4F202033B
:10181C009C490A401A6041F23003C4F202031A6870
:10182C0041F23003C4F2020397490A401A6020E1E6
:10183C0041F23003C4F202031A6841F23003C4F2DD
:10184C000203802149020A431A6041F23003C4F2B8
:10185C0002031A6841F23003C4F202038A490A40B7
:10186C001A6006E141F20402C4F2020241F20403DE
:10187C00C4F2020312681A6041F23003C4F202038C
:10188C001A6841F23003C4F2020340F200110A4319
:10189C001A60EEE041F20402C4F2020241F20403C7
:1018AC00C4F2020312681A6041F23003C4F202035C
:1018BC001A6841F23003C4F20203802109060A437C
:1018CC001A6041F23003C4F202031A6841F2300389
:1018DC00C4F2020340F200110A431A60C9E041F25B
:1018EC000403C4F202031A6841F20403C4F20203B3
:1018FC0044F200010A431A6041F23003C4F20203BD
:10190C001A6841F23003C4F2020340F200110A4398
:10191C001A60AEE041F20403C4F202031A6841F209
:10192C000403C4F2020344F200010A431A6041F2B8
:10193C003003C4F202031A6841F23003C4F202030A
:10194C00802109060A431A6041F23003C4F20203F3
:10195C001A6841F23003C4F2020340F200110A4348
:10196C001A6086E041F20403C4F202031A6841F2E1
:10197C000403C4F2020348F200010A431A6041F264
:10198C003003C4F202031A6841F23003C4F20203BA
:10199C0040F200110A431A606BE041F20403C4F2F6
:1019AC0002031A6841F20403C4F2020348F2000174
:1019BC000A431A6041F23003C4F202031A6841F27E
:1019CC003003C4F20203802109060A431A6041F273
:1019DC003003C4F202031A6841F23003C4F202036A
:1019EC0040F200110A431A6043E041F20403C4F2CE
:1019FC0002031A6841F20403C4F202034CF2000120
:101A0C000A431A6041F23003C4F202031A6841F22D
:101A1C003003C4F2020340F200110A431A6028E0BA
:101A2C0041F20403C4F202031A6841F20403C4F243
:101A3C0002034CF200010A431A6041F23003C4F273
:101A4C0002031A6841F23003C4F202038021090632
:101A5C000A431A6041F23003C4F202031A6841F2DD
:101A6C003003C4F2020340F200110A431A6000E092
:101A7C00C046C046BD4602B080BDC046FF3FFFFF1A
:101A8C00B0200008FFFFFEFFFFFEFFFF80B582B015
:101A9C0000AF0200FB1D1A70FB1D1B787F2B12D8A8
:101AAC00FB1D1B781A001F231A4011004EF2001365
:101ABC00CEF20003FA1D127852B25209012088406E
:101ACC0001009200D150C046BD4602B080BD90B519
:101ADC0083B000AF02003960FB1D1A70FB1D1B7830
:101AEC007F2B2FD84EF20013CEF20003FA1D127882
:101AFC0052B29208C0329200D358FA1D12781100DB
:101B0C0003220A40D200FF2191400A00D2431A401E
:101B1C0010003B689B01FF221A40FB1D1B7819002B
:101B2C0003230B40DB009A4011004EF20013CEF25F
:101B3C000003FA1D127852B292080143C03292008F
:101B4C00D15037E04EF60053CEF20003FA1D127856
:101B5C0011000F220A40083A9208063292009B1894
:101B6C0004331B68FA1D1278110003220A40D200BC
:101B7C00FF2191400A00D2431A4010003B689B01A0
:101B8C00FF221A40FB1D1B78190003230B40DB00BE
:101B9C009A404EF60053CEF20003F91D09780C0062
:101BAC000F212140083989080243063189005B184E
:101BBC0004331A60C046BD4603B090BD80B582B0F8
:101BCC0000AF0200FB1D1A70BB1D0A1C1A70BB1D56
:101BDC001A78FB1D1B785BB211001800FFF777FF1A
:101BEC00FB1D1B785BB21800FFF750FFC046BD46CB
:101BFC0002B080BD80B582B000AF786039603A68C1
:101C0C004FF68073C1F6FF731A4011004EF6005365
:101C1C00CEF200037A680A439A60BFF34F8FC04636
:101C2C00C046BD4602B080BD80B582B000AF020098
:101C3C00FB1D1A70FB1D1B78072B08D8FB1D1A788F
:101C4C0040F22803C2F200035200D35A00E00023F2
:101C5C001800BD4602B080BD80B582B000AF020056
:101C6C00FB1D1A70FB1D197842F2D802C0F6000257
:101C7C000B005B005B189B00D31808331B689BB2EE
:101C8C001800FFF76BFDFB1D197842F2D802C0F665
:101C9C0000020B005B005B189B00D3180433186820
:101CAC00FB1D197842F2D802C0F600020B005B0053
:101CBC005B189B009B5800220121FFF79FFCFB1D2A
:101CCC00197842F2D802C0F600020B005B005B18D8
:101CDC009B00D31804331868FB1D197842F2D80204
:101CEC00C0F600020B005B005B189B009B580322A4
:101CFC000021FFF7DBFCFB1D1878FB1D197842F265
:101D0C00D802C0F600020B005B005B189B00D318D6
:101D1C0004331B682833190042F2D802C0F60002C3
:101D2C0003005B001B189B009B580B60C046BD4614
:101D3C0002B080BD80B584B000AF786039603B687C
:101D4C00180000F073F90023FB602EE07A68FB6842
:101D5C00D3181B78190042F22C12C0F600020B00AB
:101D6C005B005B189B00D318043318687A68FB6817
:101D7C00D3181B78190042F22C12C0F600020B008B
:101D8C005B005B189B009B5800220321FFF736FC7D
:101D9C00FB68D8B27A68FB68D3181B780422190048
:101DAC00FEF7D2FFFB680133FB60FA683B689A428E
:101DBC00CCD3E0231B0319000120FFF7FFF801210E
:101DCC000120FFF79FF8FEF770FE0120FEF74AFB9B
:101DDC00FEF784FEFEF7B4FE0120FFF737F93B68EF
:101DEC00180000F0DCF8C046BD4604B080BD80B5DC
:101DFC0084B000AF786039600023FB607BE07A68C8
:101E0C00FB68D3181B78190042F2F002C0F60002EE
:101E1C000B005B005B189B00D31808331B689BB24C
:101E2C001800FFF79BFC7A68FB68D3181B78190025
:101E3C0042F2F002C0F600020B005B005B189B0044
:101E4C00D318043318687A68FB68D3181B78190008
:101E5C0042F2F002C0F600020B005B005B189B0024
:101E6C009B5800220121FFF7C9FB7A68FB68D31845
:101E7C001B78190042F2F002C0F600020B005B0066
:101E8C005B189B00D318043318687A68FB68D31866
:101E9C001B78190042F2F002C0F600020B005B0046
:101EAC005B189B009B5803220021FFF7FFFB7A680D
:101EBC00FB68D3181B7818007A68FB68D3181B785A
:101ECC00190042F2F002C0F600020B005B005B1836
:101EDC009B00D31804331B682833190042F2F0021C
:101EEC00C0F6000203005B001B189B009B580B60A4
:101EFC00FB680133FB60FA683B689A4200D27EE7CC
:101F0C00C046C046BD4604B080BD80B582B000AFAF
:101F1C000200FB1D1A70FB1D1878FB1D197842F28C
:101F2C00F002C0F600020B005B005B189B00D3189C
:101F3C0004331B681833190042F2F002C0F6000299
:101F4C0003005B001B189B009B580B60C046BD46F2
:101F5C0002B080BD80B582B000AF0200FB1D1A70CC
:101F6C00FB1D1878FB1D197842F2F002C0F6000236
:101F7C000B005B005B189B00D31804331B682833E1
:101F8C00190042F2F002C0F6000203005B001B18BD
:101F9C009B009B580B60C046BD4602B080BD80B50F
:101FAC008AB000AF786040F20050FFF7D7FB0020FA
:101FBC00FFF77AF80C217A1842F24C43C4F2010371
:101FCC0013607B1800221A7640F22803C2F2000339
:101FDC007A1893607B1801225A767B1840F2001213
:101FEC005A607B1840F20042DA607B1800229A7625
:101FFC007B187A681A617B1842F200025A617B18CE
:10200C0019000020FFF7B8F80020FFF7CBF90020EB
:10201C00FFF7ECF902210020FFF7CBFA0021092091
:10202C00FFF7CCFDC046BD460AB080BD80B582B07E
:10203C0000AF786040F20960FFF790FB0620FFF7D5
:10204C00B3FB01210220FEF78DFD012140F20010AF
:10205C00FEF788FD0020FEF7FFFD7B6819000120CC
:10206C00FEF720FEC046BD4602B080BDF8B5C046A6
:10207C00F8BC08BC9E467047F8B5C046F8BC08BC16
:04208C009E467047B5
:10209000000102030405060700010203040000001A
:1020A0000000000000000000010203040607080908
:1020B0000A1800083C18000870180008A01800084A
:1020C000EA1800082019000870190008A61900086D
:1020D000F61900082C1A000801000000001400483E
:1020E00000140048020000000014004800140048DA
:1020F0000200000000040048000400480004000042
:1021000000000048000000480002000000000048F5
:1021100000000048002000000000004800000048C7
:1021200000400000000000480000004801000000DE
:1021300000000048000000480200000000000048C5
:1021400000000048040000000000004800000048B3
:1021500008000000000000480000004810000000D7
:102160000000004800000048200000000000004877
:102170000000004840000000000000480000004847
:0C21800080000000000000480000004843
:04218C004D010008F9
:042190001D01000825
:0421940000A24A0457
:0400000508000A6580
:00000001FF
